:020000040000FA
:02000000702965
:100008007E1480314E01901C0A280B280729901075
:10001800FF304B019D0074309C00FC30FB05400113
:10002800A81C172818286E294B019E17FB014001B0
:10003800A801FF30F700FF30F800FF30A200FF30C2
:10004800A300FF30A000FF30A10018129812790811
:100058007A04031D3028312859287B1718162608DA
:100068002704031D382839283E28FB1798164B010A
:100078009E13FF28203027062604031D4428452800
:1000880048284B019E13FF282708F8002608F70088
:10009800FB150030F0002030F10026087002A200A5
:1000A8002708713BA3002814FF2826082704031DEE
:1000B8005E285F287C28FB17981620307A0679047A
:1000C800031D672868286B284B019E13FF287A08B0
:1000D800F8007908F7007B150030F0002030F100B7
:1000E80079087002A2007A08713BA3002814FF283F
:1000F80027087A06031D822826087906031D852805
:100108008628A22820307A067904031D8C288D2899
:1001180090284B019E13FF287A08F8007908F70009
:100128007B15FB150030F0002030F10079087002D3
:10013800A2007A08713BA3002814FF287A08270236
:10014800031DA828790826020318AB28AC28D6284E
:100158002708F8002608F700FB1520307A067904EE
:10016800031DB728B828C4280030F0002030F1005B
:1001780077087002A2007808713BA3002814FF28B2
:1001880026087902A20027087A3BA3007B160030D4
:10019800F0002030F10079087002A0007A08713B65
:1001A800A100FF287A08F8007908F7007B152030AD
:1001B80027062604031DE128E228EE280030F00077
:1001C8002030F10077087002A2007808713BA30084
:1001D8002814FF2879082602A2007A08273BA300E2
:1001E800FB160030F0002030F10026087002A00055
:1001F8002708713BA100F709F8094001A209A309E2
:10020800A009A1096E298C12562978084B019D0076
:1002180077089C006D29400123084B019D0040018F
:1002280022084B019C007B1D1A291B291D2940010E
:100238001816FB1D202921296D29400198166D29C2
:10024800400121084B019D00400120084B019C0002
:100258007B1E2F293029322940011816FB1E35290B
:1002680036293829400198164001281C3C293D2987
:100278006D297B1B4029412942291812FB1B45295E
:1002880046296D2998126D297B1B4B294C294E292B
:1002980040011812FB1B5129522954294001981278
:1002A800FB036D297B080339F000F1017108003A5E
:1002B80003195F296D297008003A03190929013AC1
:1002C80003190F29033A03192429013A0319482964
:1002D8006D29FB0A7E1009007129F701F801F9015F
:1002E800FA01FB014001A001A101A201A301A4019F
:1002F800A501A601A701A801A901AA01AB017E10C9
:100308004001862904307E01B800CE010F309000EC
:10031800400198019A01CE309200FF3094007D018F
:10032800CC010130CB00103042019B0024309E00EC
:1003380090309D004B011E1643309F0083305201C0
:100348009F0006304501900085308D0090308E006A
:100358004E019A140B178B1796164001AA01A80193
:10036800FB01F6014E018F1EBA29BB29AE2A4201B4
:100378001D1DBF29C029D129190840012908031DBD
:10038800C629C729CC292A080319CB29CC29BA2A76
:100398000330AC002C08F600BA2A19084001AC005A
:1003A8002C08A90053302906031DDB29DC29892ADA
:1003B8002A080319E029E129E5294E30833113235E
:1003C80081314001AA01AA0ABA2A29080319ED298C
:1003D800EE29F129F601F60AA92A0130AA02A92A6A
:1003E80029088331062381314001AC002C08AB0079
:1003F800AB0EF030AB05A92A2908833106238131D9
:100408004001AC002C08AB0703302B02031C0D2A5B
:100418000E2AA92AEE2929088331062381314001B1
:10042800AC002C08A500A50EF030A505A92A2908BE
:100438008331062381314001AC002C08A507A92A85
:1004480029088331062381314001AC002C08A4001F
:10045800A40EF030A405A92A290883310623813186
:100468004001AC002C08A4072B08031D3C2A3D2A98
:100478005D2AA818402A412AEE2920302502013099
:1004880003192402031C492A4A2A4B2AEE29250863
:10049800FA002408F9007A088231DE2281317908CD
:1004A8008231DE22813102304001AC002C08F60096
:1004B800A92A2B03031D612A622A832AA818652A00
:1004C800662AEE2920302502013003192402031C74
:1004D8006E2A6F2A702AEE292508A7002408A6008C
:1004E80027088231DE228131400126088231DE224E
:1004F800813102304001AC002C08F600A92AA8146A
:100508000230AC002C08F600A92A2A080739AC00EA
:10051800AD012D08003A0319922AA92A2C08003A9D
:100528000319E929013A0319F429033A0319002A9E
:10053800013A03190F2A073A03191B2A013A03192A
:10054800242A033A0319302AA92A0130AC002C08BE
:10055800AA07BA2A42019D1CB22AB32ABA2A4F30E6
:1005680083311323813142011D121D160230760694
:10057800031DBF2AC02AC72A4B3083311323813178
:100588004001AA01B5297603031DCB2ACC2AD12A1A
:100598004E30833113238131C42A03307606031D7C
:1005A800D62AD72ADC2A5A30833113238131C42A28
:1005B800B5297029F5007508F3007308F400F40EE6
:1005C8000F30F40574088231F92282318331132304
:1005D80082310F30F3007308F50575088231F9226E
:1005E80082318331132382310800F2000A3072020B
:1005F800031CFF2A002B032B7208373E052B7208B9
:10060800303E0800F20041307202031C0C2B0D2B07
:10061800102B7208C93E122B7208D03E0800F20057
:100628004E010F1E182B192B142B720842019A0029
:020638000800B8
:020000040001F9
:0A000E009C17FF3D9F3FFF3FFF3F9F
:00000001FF
