:020000040000FA
:02000000752960
:100008007E1480314E01901C0A280B280C29901070
:10001800FF304B019D0074309C00FC30FB05400113
:10002800A81C1728182873294B019E17FB014001AB
:10003800A801FF30F700FF30F800FF30A200FF30C2
:10004800A300FF30A000FF30A10018129812790811
:100058007A04031D302831285A287B1718162608D9
:100068002704031D382839283E28FB1798164B010A
:100078009E130429260A1F3003192706031D452845
:10008800462849284B019E1304292708F80026080A
:10009800F700FB15FF30F0001F30F1002608700252
:1000A800A2002708713BA300281404292608270466
:1000B800031D5F2860287E28FB179816790A1F30D1
:1000C80003197A06031D69286A286D284B019E13B7
:1000D80004297A08F8007908F7007B15FF30F0004A
:1000E8001F30F10079087002A2007A08713BA30062
:1000F8002814042927087A06031D84282608790667
:10010800031D87288828A528790A1F3003197A062D
:10011800031D8F28902893284B019E1304297A08E1
:10012800F8007908F7007B15FB15FF30F0001F3049
:10013800F10079087002A2007A08713BA300281424
:1001480004297A082702031DAB2879082602031818
:10015800AE28AF28DA282708F8002608F700FB158C
:10016800790A1F3003197A06031DBB28BC28C82842
:10017800FF30F0001F30F10077087002A200780805
:10018800713BA3002814042926087902A200270835
:100198007A3BA3007B16FF30F0001F30F10079088E
:1001A8007002A0007A08713BA10004297A08F800BF
:1001B8007908F7007B15260A1F3003192706031D47
:1001C800E628E728F328FF30F0001F30F100770811
:1001D8007002A2007808713BA3002814042979084A
:1001E8002602A2007A08273BA300FB16FF30F00086
:1001F8001F30F10026087002A0002708713BA100FB
:10020800F709F8094001A209A309A009A10973295E
:100218008C125B2978084B019D0077089C00722995
:10022800400123084B019D00400122084B019C001E
:100238007B1D1F292029222940011816FB1D25296D
:1002480026297229400198167229400121084B017C
:100258009D00400120084B019C007B1E3429352954
:10026800372940011816FB1E3A293B293D29400130
:1002780098164001281C4129422972297B1B4529CF
:10028800462947291812FB1B4A294B29722998121B
:1002980072297B1B50295129532940011812FB1B35
:1002A80056295729592940019812FB0372297B08BE
:1002B8000339F000F1017108003A03196429722921
:1002C8007008003A03190E29013A03191429033A50
:1002D80003192929013A03194D297229FB0A7E10AD
:1002E80009007629F701F801F901FA01FB0140013B
:1002F800A001A101A201A301A401A501A601A701D2
:10030800A801A901AA01AB017E1040018B29043084
:100318007E01B800CE010F309000400198019A018B
:10032800CE309200FF3094007D01CC010130CB002B
:10033800103042019B0024309E0090309D004B01FC
:100348001E1643309F00833052019F00063045013E
:10035800900085308D0090308E004E019A140B1756
:100368008B1796164001AA01A801FB01FF30F9007E
:100378001F30FA00FF30A6001F30A700F6014E011B
:100388008F1EC729C829BA2A42011D1DCC29CD298B
:10039800DE29190840012908031DD329D429D929A0
:1003A8002A080319D829D929C62A0330AC002C08F1
:1003B800F600C62A19084001AC002C08A9005330E1
:1003C8002906031DE829E929952A2A080319ED2990
:1003D800EE29F2294E3083311F2381314001AA01D1
:1003E800AA0AC62A29080319FA29FB29FE29F601AF
:1003F800F60AB52A0130AA02B52A29088331122340
:1004080081314001AC002C08AB00AB0EF030AB05DD
:10041800B52A29088331122381314001AC002C0808
:10042800AB0702302B02031C1A2A1B2AB52AFB2908
:1004380029088331122381314001AC002C08A50022
:10044800A50EF030A505B52A29088331122381317C
:100458004001AC002C08A507B52A290883311223CE
:1004680081314001AC002C08A400A40EF030A40592
:10047800B52A29088331122381314001AC002C08A8
:10048800A4072B08031D492A4A2A6F2A203025026F
:10049800003003192402031C522A532A542AFB2928
:1004A800A810FF30AC001F30AD0024082C02F90062
:1004B80025082D3BFA0025088231EA2281314001C6
:1004C80024088231EA2281314001A8140230AC00AC
:1004D8002C08F600B52A2B03031D732A742AB52AA3
:1004E80020302502003003192402031C7C2A7D2AAF
:1004F8007E2AFB29A810FF30AC001F30AD0024086D
:100508002C02A60025082D3BA70025088231EA22E7
:100518008131400124088231EA2281314001A81446
:100528006A2A2A080739AC00AD012D08003A0319D8
:100538009E2AB52A2C08003A0319F629013A03190C
:10054800012A033A03190D2A013A03191C2A073A0A
:100558000319282A013A0319312A033A03193D2AB3
:10056800B52A0130AC002C08AA07C62A42019D1CF6
:10057800BE2ABF2AC62A4F3083311F238131420148
:100588001D121D1602307606031DCB2ACC2AD32A4B
:100598004B3083311F2381314001AA01C2297603E0
:1005A800031DD72AD82ADD2A4E3083311F238131F3
:1005B800D02A03307606031DE22AE32AE82A5A30B5
:1005C80083311F238131D02AC2297529F500750886
:1005D800F3007308F400F40E0F30F4057408833147
:1005E8000523823183311F2382310F30F3007308D2
:1005F800F505750883310523823183311F23823144
:100608000800F2000A307202031C0B2B0C2B0F2B74
:100618007208373E112B7208303E0800F200413054
:100628007202031C182B192B1C2B7208C93E1E2B97
:100638007208D03E0800F2004E010F1E242B252B15
:0A064800202B720842019A000800FE
:020000040001F9
:0A000E009C17FF3D9F3FFF3FFF3F9F
:00000001FF
