:020000040000FA
:02000000752960
:100008007E1480314E01901C0A280B280C29901070
:10001800FF304B019D0074309C00FC30FB05400113
:10002800A81C1728182873294B019E17FB014001AB
:10003800A801FF30F700FF30F800FF30A200FF30C2
:10004800A300FF30A000FF30A10018129812790811
:100058007A04031D302831285A287B1718162608D9
:100068002704031D382839283E28FB1798164B010A
:100078009E130429260A1F3003192706031D452845
:10008800462849284B019E1304292708F80026080A
:10009800F700FB15FF30F0001F30F1002608700252
:1000A800A2002708713BA300281404292608270466
:1000B800031D5F2860287E28FB179816790A1F30D1
:1000C80003197A06031D69286A286D284B019E13B7
:1000D80004297A08F8007908F7007B15FF30F0004A
:1000E8001F30F10079087002A2007A08713BA30062
:1000F8002814042927087A06031D84282608790667
:10010800031D87288828A528790A1F3003197A062D
:10011800031D8F28902893284B019E1304297A08E1
:10012800F8007908F7007B15FB15FF30F0001F3049
:10013800F10079087002A2007A08713BA300281424
:1001480004297A082702031DAB2879082602031818
:10015800AE28AF28DA282708F8002608F700FB158C
:10016800790A1F3003197A06031DBB28BC28C82842
:10017800FF30F0001F30F10077087002A200780805
:10018800713BA3002814042926087902A200270835
:100198007A3BA3007B16FF30F0001F30F10079088E
:1001A8007002A0007A08713BA10004297A08F800BF
:1001B8007908F7007B15260A1F3003192706031D47
:1001C800E628E728F328FF30F0001F30F100770811
:1001D8007002A2007808713BA3002814042979084A
:1001E8002602A2007A08273BA300FB16FF30F00086
:1001F8001F30F10026087002A0002708713BA100FB
:10020800F709F8094001A209A309A009A10973295E
:100218008C125B2978084B019D0077089C00722995
:10022800400123084B019D00400122084B019C001E
:100238007B1D1F292029222940011816FB1D25296D
:1002480026297229400198167229400121084B017C
:100258009D00400120084B019C007B1E3429352954
:10026800372940011816FB1E3A293B293D29400130
:1002780098164001281C4129422972297B1B4529CF
:10028800462947291812FB1B4A294B29722998121B
:1002980072297B1B50295129532940011812FB1B35
:1002A80056295729592940019812FB0372297B08BE
:1002B8000339F000F1017108003A03196429722921
:1002C8007008003A03190E29013A03191429033A50
:1002D80003192929013A03194D297229FB0A7E10AD
:1002E80009007629F701F801F901FA01FB0140013B
:1002F800A001A101A201A301A401A501A601A701D2
:10030800A801A901AA01AB017E1040018B29043084
:100318007E01B800CE010F309000400198019A018B
:10032800CE309200FF3094007D01CC010130CB002B
:10033800103042019B0024309E0090309D004B01FC
:100348001E1643309F00833052019F00063045013E
:10035800900085308D0090308E004E019A140B1756
:100368008B1796164001AA01A801FB01FF30F9007E
:100378001F30FA00FF30A6001F30A700F6014E011B
:100388008F1EC729C829BF2A42011D1DCC29CD2986
:10039800DE29190840012908031DD329D429D929A0
:1003A8002A080319D829D929CB2A0330AC002C08EC
:1003B800F600CB2A19084001AC002C08A9005330DC
:1003C8002906031DE829E9299A2A2A080319ED298B
:1003D800EE29F2294E308331242381314001AA01CC
:1003E800AA0ACB2A29080319FA29FB29FE29F601AA
:1003F800F60ABA2A0130AA02BA2A29088331172331
:1004080081314001AC002C08AB00AB0EF030AB05DD
:10041800BA2A29088331172381314001AC002C08FE
:10042800AB0702302B02031C1A2A1B2ABA2AFB2903
:1004380029088331172381314001AC002C08A5001D
:10044800A50EF030A505BA2A290883311723813172
:100458004001AC002C08A507BA2A290883311723C4
:1004680081314001AC002C08A400A40EF030A40592
:10047800BA2A29088331172381314001AC002C089E
:10048800A4072B08031D492A4A2A712AA8184D2AAD
:100498004E2AFB2920302502003003192402031CB0
:1004A800562A572A582AFB29FF30AC001F30AD00C6
:1004B80024082C02F90025082D3BFA007A0882311D
:1004C800EF22813179088231EF2281314001A8146D
:1004D8000230AC002C08F600BA2A2B03031D752A3B
:1004E800762ABA2AA818792A7A2AFB2920302502DE
:1004F800003003192402031C822A832A842AFB2938
:10050800FF30AC001F30AD0024082C02A6002508DF
:100518002D3BA70027088231EF22813140012608B0
:100528008231EF2281314001A8146C2A2A08073948
:10053800AC00AD012D08003A0319A32ABA2A2C08E9
:10054800003A0319F629013A0319012A033A031953
:100558000D2A013A03191C2A073A0319282A013AD5
:100568000319312A033A03193D2ABA2A0130AC008B
:100578002C08AA07CB2A42019D1CC32AC42ACB2ACD
:100588004F3083312423813142011D121D16023060
:100598007606031DD02AD12AD82A4B30833124234A
:1005A80081314001AA01C2297603031DDC2ADD2A14
:1005B800E22A4E30833124238131D52A033076064E
:1005C800031DE72AE82AED2A5A3083312423813192
:1005D800D52AC2297529F5007508F3007308F400B7
:1005E800F40E0F30F405740883310A238231833105
:1005F800242382310F30F3007308F5057508833121
:100608000A2382318331242382310800F2000A3020
:100618007202031C102B112B142B7208373E162B59
:100628007208303E0800F20041307202031C1D2B94
:100638001E2B212B7208C93E232B7208D03E0800BE
:10064800F2004E010F1E292B2A2B252B720842017E
:040658009A000800FC
:020000040001F9
:0A000E009C17FF3D9F3FFF3FFF3F9F
:00000001FF
